:100000000C943B100C9458100C9458100C945810ED
:100010000C9458100C9458100C9458100C945810C0
:100020000C9458100C9458100C9458100C945810B0
:100030000C9458100C94EC110C9458100C9458100B
:100040000C9451120C9458100C9458100C94581095
:100050000C9458100C9458100C9458100C94581080
:100060000C9458100C94A2110C9458100C94581025
:100070000C9458100C94581045555369775453619B
:1000800033546F6D57696D4D59444A643147693037
:10009000796D32756665613749553776697874527E
:1000A0005A4C6F56556A6D456344416A6845596AB2
:1000B0007962706D646A6C414D42437A774F4C4B64
:1000C000494A4C4A4D4277316A783856665762330E
:1000D000446436736F346E5A374759493154346B20
:1000E000777A56474930333666654A7835504C350D
:1000F0006F4E446F644C72642F6961776C657A321D
:100100004E3537734F7A7642634F45506C6A484597
:100110004C733545627846555A6D6F57526C6C7703
:10012000394B4D75576C663336334362334A524B05
:100130003666474855744D31436C794E3138323606
:100140006B63325A58596A454C7337454C374745AB
:10015000446C344D79384D39446C364D692B4D74AF
:10016000686871754776656E51365478615A4C4AA5
:10017000644F4D4F4239387A5933345035533977BB
:10018000422B6A53315A4F3759546655437841636D
:10019000364174557A566549776D4B37686E4973A9
:1001A000457135492F4B7574557A3436517751382E
:1001B00066314262326242597452624C6A466870D9
:1001C00042646F6E59322B6B4A71766446574268AF
:1001D0006B376E65736436305849367632735051DA
:1001E0005964694F6A796D766D356E774E55424622
:1001F000367A55735972747547794659553475492D
:1002000059346B475A597864545035336A68465AA2
:10021000516244612F6468726F517747426F326652
:10022000546A4E505A3331744C722B58674F5A6986
:10023000666F4D443776636E36627542756A465610
:100240007953764A4868794F34622B4475354A4A67
:100250003376782B47555039424A475537475675BC
:100260006B516466565270757352645830536450C3
:10027000652B4773316D7670724E527A7351615AA5
:1002800047644C794C4A5271496337474B38736223
:1002900078474354584B7A7962326C4E4D426F72B4
:1002A0005871327477623533642B57483037637432
:1002B000327A507577522F6A7351597A57664A4A83
:1002C0005A4C426F4B425937586642494F4A352F74
:1002D0002F36473851714F39486731714B556F6C24
:1002E000796D647662326C6F734671746A73572BE2
:1002F000327A4E46656A3944656D4978772B4C7879
:1003000049354A4A2F2F782B4F454E395A62454579
:1003100042594763796563767A446E415A7A415906
:1003200043345A44656D497851364C527331717477
:1003300044595765534876684B355A4C2F69435199
:100340007A325379336A4159437761446D704C4A2C
:100350005078774F414E2B7A41743576374B6B4945
:10036000673049687932617A676834503344484568
:100370003558466B74566E7766377A656147747088
:10038000627A516169686F4E5861304B67683450CA
:10039000334C4745786D46734E5A75326B3872430D
:1003A0004B5266774E636359526E336939715253BB
:1003B000726F6845706447305853314B6F6F3748E0
:1003C00075494D6431656D6F553672567356767842
:1003D0006F394A70372F5436656D4B7867304B68EC
:1003E0006930616A6970704E66543143706F784746
:1003F000704932617972706464546E415A3742595F
:100400004B35624C7667434152364451372F543650
:100410002B714A52382F70395A5448455A62474511
:10042000785746737364757867384A68617A596299
:10043000566E5336576E4935525343515369515393
:100440006A70684D6F564E3159624F464751396256
:1004500064755279506B4167463468457064473023
:1004600033653271306A61626C70524B496B366E23
:100470006A5274523866726F706445686E63307683
:100480006D68496358367844726F6D4E54715A7A6C
:1004900038715A7A3869597A56765A625A657A3278
:1004A0002F4B454D67554E393558466B74646B7705
:1004B00048347847704131614B6B716C43596566C4
:1004C000464656325045483865542F444F6B4B686A
:1004D00069385A6A37436F56304F7361547953689D
:1004E0007A6A697653616538484648482F6E3352B8
:1004F00038715453376969557A575675734965662B
:100500006C4A575754486C67743169735553764A2F
:100510005035784F6F412F624E7352694D73546955
:1005200039535336546E675547512F7A4D4D544BBE
:1005300064325379336A415969385A6A3669715657
:100540006B63753568304167467769455253464D50
:100550006F5650316F56503149525056736475780A
:1005600041774942322B3533344B384C336A435947
:1005700053366254736F5A4465754C786F314970C5
:1005800054365453626D69303365327130725A6239
:100590006475547966754477663778654B4D753563
:1005A000423444415A7A415943776144476C4B7015
:1005B0006A385469647554792F714451627A536171
:1005C00079546F6430576E6F382F72394A5A4555D7
:1005D00044515865364B734A58367A5762476C6FA8
:1005E00073317174445156657149755A6C386A6B30
:1005F00064626D41782B4477667A796553507368ED
:10060000792B5A7A347137584D4D652F424E3279D5
:10061000587642347531347679446C41704E444199
:1006200038336F56785746457364735A77324B5A4E
:10063000416F4A706662376674415865364B754A39
:100640006E38786D744957655350736854715A54B5
:10065000384B62674D6B6151436C6F657A575864D4
:100660006347646362476C627339706537585656E6
:1006700074415874364B753648777731416C334244
:100680002F794351547951536A68674D67554E39F4
:100690003566476B56536C496F314B706A30516900
:1006A0006C70544B347135583843665075674863E5
:1006B000614C6333324C4D31575339376675444181
:1006C00066377A756132745A362F52364F734A68DC
:1006D00061375A62646D51794874446F38337139A7
:1006E0006855483865542F444F6B496853796154B5
:1006F0006B70624C50734467647A67636955642F0A
:100700003543314B6F67364847464E3134664F6C40
:10071000435963665650576D5648566D4E45582B93
:1007200065474E743766576D5648566D4E4D552B7E
:1007300047464E3159624F466D552F37706F784797
:1007400070413161716F72464F522F544D6B616A27
:10075000437472744C5A55576A426E5162375461F1
:1007600036696F5630577470372F523650734C6855
:1007700071465966546E694932652B66434E6A5913
:10078000634C7542477736486D42505673567478BD
:10079000597A495A567969555453564F49452F3716
:1007A00070677747424E30796E68414941774B35E3
:1007B0004777362F47464E4E34664F644359656E31
:1007C0004546584F6632487338587468617A5962A2
:1007D000317252614B73706C3648666E4C6B746448
:1007E000352F42634F353572664F47493057764E45
:1007F0007231514F6C786176484E446F382F7039A2
:100800005A6247455261474D77654D747A5758751E
:10081000634F63767A4C6D41782B427750357A4F2F
:10082000594F38727A7268634B52645863476476E2
:1008300037436E49597A4B5A6C55696B554B6B3837
:1008400041774B316D30365443467446597A4B7478
:1008500046776777673046497546397A3471355837
:10086000384B65506E4A4555445156654B45743575
:100870005A7A4359537961546B705A4C2F694351DA
:100880005479515344746A73635474422B2F352F37
:100890003543334B34713558384B63505848486BA7
:1008A00039586E67643768634B5A65586B426658AF
:1008B000734963665648566D4E45582B2B4B4F4E29
:1008C0006E63303647744C704C35544B596D36332B
:1008D0004146397A34713558634F63767A446C41B6
:1008E0007031416F45347246756C397A35713558BF
:1008F000384B63505758486B39336E45392F685918
:100900004F5A2B33456C59507A6A673443346337F6
:100910005566576D31445847354B324B786A3666C9
:100920006C785869374B6D3851794B6C46597278F1
:10093000754E387A5176372F704932615376723955
:1009400070564830667A31436F3478684A4D306467
:1009500047744A4F37335164476C494F7A32515686
:100960006D42437651714A52382F72394A5A455571
:100970006A55562B75494F646C636B346D38376E0E
:100980007149735A313269305853334B5975353385
:10099000594F2B72446C67734559735A56366A55D2
:1009A000625458475A4F3271306A61626C70544BCE
:1009B0005A47343377622B6247744A7837765469E2
:1009C0002F4B4C524D786F4E5853334B597537332C
:1009D000494D3837786A79655350756843345A44BD
:1009E0002B694B5245776F4657612B4C6E35424908
:1009F000705649795479514A446C6933555374534C
:100A0000667A77466942764B746C71326A38552B38
:100A1000474650316F564E313458506C71646533CF
:100A2000414E2B7A67703750764945636963652F6D
:100A300042463179766F42417039446F382F7039B0
:100A40005A6247455261474D51614F4E6E5531369E
:100A5000756F4A422B33362F424E3079486C416FC6
:100A60004534704665542F44756F4C424F7836506C
:100A70006E42465572565632764945636963652F14
:100A800068423153726F68454A5A47555453564F1E
:100A90006F492B626C68534B777235666475577576
:100AA0003154644865474E7462545847354B304B57
:100AB000677037507641466371646333774C3844CE
:100AC000326A4B5A6C386A6B64546C417039426FAD
:100AD00073316F747A5756754D45662F4A4D3236CD
:100AE00032724A5A3933673847593862316A53612A
:100AF0007972726474566E77667A77654346747855
:100B0000342F4A35352F4234753136766A4A6D5165
:100B10007A2B54792F69415144775343786A77652A
:100B2000434E73785179495230326F3177654D7445
:100B30007A5756754E6B662F7051336161757031FF
:100B400059624D4632653872546E69385761384C77
:100B5000336A41596930596A536E6F395253464D61
:100B60006F644D3177654D745453584F594F3872F7
:100B70007A6A67636955642F5A47337138716254D2
:100B8000736F62444F734A6836336137426C7775CE
:100B9000454E653367423954636D597A77723766CB
:100BA0004E45562B4F4D4D39785748736362754209
:100BB0006D38356E364B734A332B78325045483892
:100BC0006554394465754C786F4E4A70617A51614D
:100BD000436C6F745461574F77443944656D4B785B
:100BE00041514B426E6B3647694A737755796F3086
:100BF0005561756F6E30794856485848637557503F
:100C00003062634857484E6C61546448654750747D
:100C1000726457325850456B46516E59362F6237C1
:100C2000706F7847704133616175703134664D6C17
:100C30005353645066474873386675686938626A0A
:100C40004B73726C71646333774C2B44476C4B70FD
:100C5000443452434A73786D744156374B4576633A
:100C60004A78417441344C6B7539374B71516C394A
:100C700071645A72376967554459556543467678A9
:100C800049784B4A483478474A45333665754C783D
:100C9000703149707A4F524B506B415946776938E1
:100CA0005253484D34584E6C3658646E614F7370D1
:100CB0007A2B5479656D43775843777A444E6D5655
:100CC000332B7854504D455A6D63386552667A62BD
:100CD00066474E7462625547424E30796E684149AC
:100CE00067304B6843345A4465754A78342F4C3525
:100CF0004A784349772B4A78342F4C354970444918
:100D000059624A38647A6735695566614A45316681
:100D100075674B6B6E3835433636734A33327732EC
:100D2000484648302F6630696C68514B41563676DC
:100D300043466B347631786D4546632F344B2F44F0
:100D400048744367384872316730463850423947F3
:100D500063755A6D34693443304C6553474E4F6761
:100D600067384F6F414947637965637654506D67C3
:100D7000312B6A3066623243787278657141745AF9
:100D8000393369385761384C586E43345779345881
:100D90005550636E794C734232323433774C384459
:100DA000576E49355279435154365453626D693008
:100DB00033573371636D597A776A366E6C4A57755B
:100DC0007A4C6B3468384459392F68454F5239543E
:100DD0003869595430725A6239695153446C697395
:100DE000306573707A2B5279763444775962425960
:100DF0004B355A4C2F694351547953537A726A6375
:100E0000616265486D4A4D56554B754A475978326F
:100E10004A6B334B2F794B52453472467564387A9E
:100E2000777237664E45582B654F4F746A55582B6D
:100E300065474E743758566D745957657A6A7347CB
:100E400065373459644F5670454E647751502F6B57
:100E500043467071534B574F77442F444F734A6842
:100E6000362F5A3735717857726F6B596A73596CD0
:100E7000616D707A51614E4C5853324D59753478CA
:100E80003479384E656D41774877794778443143F6
:100E90004A737A6D6447567573346366304C552BCC
:100EA0006842337137716A73617A56474A553341E4
:100EB000656D4B4C674549625479615445745A726B
:100EC000626D69305861304B4174377672416E59AA
:100ED000617A61626C70544B346934585648666E5E
:100EE0004B38734A517943677A4751796E70444958
:100EF00059374C5A4E35684D495A4D565553744AD8
:100F00002F2F7A2B2B43504E766432795876423409
:100F10007539357662476E6F38336F39786545734A
:100F20006B557635493542496F4E4B707239537166
:100F300038715954636D627A676F6F502B54554DF9
:100F40006F386331776665746A56482B65486674F6
:100F50004C525857616D6C6F4D70714E50596E53B5
:100F6000547579386561744432695A5A313379302D
:100F700033586E7138724A54636E4B7A41743576C9
:100F800062476C6F4D34374E50596D5354757838F5
:100F90007556397A5975373349452F377067774712
:100FA000684A30534474687373553978342B62350A
:100FB0004A775149673161686930596A53767039A7
:100FC0005A54464570644730335731714D735A6AED
:100FD000367172567364757867315968792F4A7A19
:100FE00059767033344C754C486B516F45783446A4
:100FF000574B2B4C47464438303335685162665A5C
:1010000047786B4F717836696D64736351767A5A9D
:101010002B7A664E50596D53546D7738475274622F
:10102000646D537933724459362B4A375A76683295
:10103000504E57385761384C33724459363359370C
:10104000786A776543467478597A4B5A46346A45CC
:101050005A5448453566476B3158316F7338377489
:1010600072554632764A556343524E66394B574F56
:101070005150396A53766F395A5447455A5355453A
:10108000706B553075556E79666E51774878694743
:10109000524F6D6956765436662B4C7849524C4AFD
:1010A0006E39676D744247653644384A66727765B3
:1010B00072682F5A74307973306638707A2F447999
:1010C00066765277763978754D464E2F35446E4B9D
:1010D000346A71586B4A63585548666E7149735A41
:1010E000312B68305052335362756A3066616B43FE
:1010F000686F6A4F344C734C587554346579716617
:101100006C4947577A4331414A345449597A495ACC
:1011100031326A30336531716B70594C666E52777B
:101120006E46686D6B4148323744336F59365A35D5
:1011300064797938536163763272476B5243464D16
:10114000495164563957396861434A653169426685
:10115000434E716F4B4947577A4B32415237545186
:10116000373241366D704A4A2F2F7A2B2B44664E08
:1011700050596B53446B77734559735A5679674D81
:101180004451584761477478627A514369527156A5
:1011900047513261366972564551755A74387973C0
:1011A0003857386862614962643341794873526FD5
:1011B00073383574625348475A65327156486163D3
:1011C000424E7A4A396165506E4A47555453584FDA
:1011D000594F3872796A6763436F65714646564462
:1011E0005030464A50523954387162544D735A6ADD
:1011F000366970645553754250787A475150397248
:1012000054766F315A6A46454A5246554C525857A1
:10121000374B6B4967384C6871315A72546E683875
:101220006D552B374A6B786D45465732662B4573A3
:101230004551765A4E356A4D34664F6C6963652F59
:10124000424E3279586E4334573637587349636685
:1012500031445847354B324B516E342F5248336925
:10126000397154533769697854535872344B38750F
:10127000336A41396A306147436472744C5256573D
:1012800072496B59433462444F734A68363361374D
:10129000426C7775454E6333774C2B446D68494AF1
:1012A000332B7832504548382B662B6A694A724E88
:1012B0004F423253376968556A45552B766F4D64F6
:1012C00056616B49673049685379595455765A3796
:1012D000356979577A446E415A4C445937335959D4
:1012E000786A7739434E7353772B4A5334764A6181
:1012F00059624459362F6237706F7A475A473171B5
:101300004D735A6A366971564551765A74396A7303
:10131000386673687932597A5176352F354B304BB0
:1013200067683650485648302B3330694E6B5269E7
:1013300046745171736F5944657549785A544C5AC3
:101340006C6B686B46596C596A73596A61477131A5
:1013500067634F39686345386D632B376868774F2B
:10136000414E2B7A6770355066474873634C734221
:10137000585336676B4A63673054667776675064B4
:101380004E5A6E625436535A37696A667A57576CAA
:10139000396963452F61454D41514E6439586E6737
:1013A000393367384751396264755479666D4177CE
:1013B00048347A475A4F30716B70624C76774141AE
:1013C00041514333782B44482F6E774A48744F314C
:1013D0004151506474566C774F5A7A4F34532F787A
:1013E000506B41616B636A6564446C417031436F5B
:1013F000567172567339734A51364A70397672464D
:101400007031463076563179506B436756366855A1
:10141000726C56324F45484D2B582F544B737256B1
:101420004B52646E633266664B4D6D34322B3533EE
:1014300059472F72726767456830484D6644394492
:101440002B714A52637A6F6456616B4967384C68F6
:10145000713962724C736A6B64626D41782B4477A8
:101460002B66782B4F634D597865454A463475385D
:10147000466F6A455A6247455179484D34504F5638
:10148000435164766447566573496376556E585781
:1014900064575875384B6350334C474578654773EC
:1014A0005653764A50427A4F784C394432624C5AFD
:1014B0004E356A4D34664F6C6A63652F683532333A
:1014C00054766A5A2B662B47436C6F4953615772A7
:1014D00078722B4448744C5A4C78513641743766B4
:1014E00072416C6F4B4A5A376575427776397A7517
:1014F000636D667671516D6536585A395133792B63
:1015000057764F6C44496376314458325A473161BB
:101510007368497A324361706B74786B4E526C51C8
:1015200072745471644F62456F773477336A4E46F4
:1015300065442F4476494C784F78342F58504555A0
:1015400046516C6F717462624B4D6A6B64546E41AC
:10155000353341346D38356E3643744A66377850CA
:101560007141744963546763694D662F684A31530A
:10157000434668734541745A643768634B5A6358ED
:101580005550636E53507368792B627A496B366E8F
:10159000694A75524534704665622B446E684B4A01
:1015A00048497A685A47334E39696130455659720D
:1015B00053766A382B6E2B687267724847672B62C6
:1015C0004E6B5469557653362F4B4A5264377159D6
:1015D00074746E31322B78327641486361626348AD
:1015E0005733506C7264662F41312B377067344823
:1015F000324450464F35385431375A68394B546F5E
:10160000363668554C5256574C4D6B34475937480F
:1016100050554D6C5A374863514B4845772B4E6CAB
:101620005343574A3469384D654741776D63772B8B
:101630004E4D586D32624E6458362B4C6E6841499F
:1016400067384A68362F62374A73786D4E45562B95
:1016500075414E6464626E48783242336E30776D05
:101660006C4256574C456C3475313476536E6C670A
:101670004E68697451614D73577931726F77344890
:101680005747666C4B515058734965666C4A5757BB
:101690007A446C416F74446F3866704E35664755B6
:1016A00031576E596337707463446C774A524149BD
:1016B00041774B426D30346E5348746861376262D3
:1016C000746753435258772B484E4D567757504EB8
:1016D000726C56574F4D473857612B4C4864446FD6
:1016E0003933716142514837616A64672F434E4E06
:1016F000665433435A6D79325848466B74566E7748
:101700002F2F7A2B654750747256583266474673AE
:101710004D527452637A71646C64323457727058EB
:1017200064764E2F7A613151415A52414A345449BC
:1017300034334B35683842677438786373553942AF
:10174000342F4C4A703141596B386F696154644889
:1017500066754F746A45566B4F454E6E342F452B58
:1017600046496B5944595A44652F61684A524A5A4E
:101770003376683250454838664439442B4B495AD1
:101780003833723142594855536166486E42476357
:101790006254554F4A4D31796D704B4275317A6DB7
:1017A00030376348324C4D4657612B4C4874426F7A
:1017B0004D4A724E75563032765943453433413472
:1017C0006D45346E5448756871384B724C64776B54
:1017D000736332775879775744396B7747786A451E
:1017E000524830674E55546755505436662B4A461A
:1017F00059365A746479796F7965636254766D5598
:1018000030756A302F503269304C514E71777053B9
:101810005837754C486C436F30326F31774F4F7487
:101820006930556175526335382B3267567A795570
:101830007A66477555474E2F61483978623642714E
:1018400071676F3157532F4C766741416764526718
:101850004E6777574152664873316E7166716A659B
:101860003769744A66696A5A54752F6D43684944EA
:1018700057764A3534584334326D3476774439627A
:101880002F4C5A4A63713564396532675679695508
:101890005453584F594F2B7269356A4D34334D6E3E
:1018A00037474D6C37722B4A48426A53774B6E5715
:1018B00052576A3658504E68796E50764C456E34A1
:1018C0002B2F372F4A45313675674B426D30366EB8
:1018D00069357352312B715349684D7964613942CE
:1018E000324735335247766A4B6B6F6C7957667661
:1018F0004C6B6C34767436474C6B6B52507037506F
:10190000766F4563444165624E6C47366666657422
:101910006A31462B505663355A3748417750566FD7
:1019200045597664465168414177486337324F677D
:101930004B642F2B675654485672777A7138476438
:10194000334446764A4A472F5336565A41642F6BE2
:10195000424E377672496B5943345A442B725A526D
:101960006379346431576E6F637A6F6431656B6F7E
:101970006B38706C36574E6E61482F704B5A544B13
:1019800059337053786A2B6D4F3161526938625404
:10199000724972317545767A6F6F374850634F39A7
:1019A00042344573435250764E46484F2B434E398E
:1019B00065443179704978474A4D3236576E49351A
:1019C00052794151693053693154524B696872649C
:1019D0006E646E71576D5A705136434136574336B7
:1019E0005875592B3550432F667972346C344878CA
:1019F000794331724A78416A41494C7150353750C8
:101A0000504D453847673962386952566A70694C9B
:101A100059724E4333322F72717767524259454A99
:101A2000696B6471594731714D63626A4C6B7153D4
:101A30004451646F637555756C4A65324546665707
:101A40004A4D386152667A2B2B4B4F4E6E633036BF
:101A500047744A70372F5436656D4B7868734C68FD
:101A600071645A62626D67456E63324B57764A4ABB
:101A70005A7A41596930616A6970724E7664327976
:101A800033724459617A5962316A51616970724E98
:101A900076563379666D41776E30796D5648586D5C
:101AA0003861574F51762F71444D366B724D473226
:101AB000334B5745772B45736B4D734D523642511F
:101AC00072395471636D597A5176352F5A47317195
:101AD0007367594457764A35342F42344F4A34504D
:101AE000656546736B387535683842674D68694D72
:101AF000513650646D3831716D35494F2B66782BF6
:101B000075514F5674646E34583678574C4D6D3459
:101B1000323234335176386A7A376F6464626C419A
:101B2000683044675636695561545547707730358B
:101B300072346F6D2B2F386A796A6F6456536C4913
:101B40006F394A703776517850454B686930626A10
:101B500043317274693056624F455059705646523F
:101B6000505A30334464684A74647378772B4A78E7
:101B70005A374C5A744E6938385875784C706162CF
:101B80007649446C5A7A41396A63624771346F41CD
:101B90006562394732724C354E356873495250315F
:101BA0007339735252694930302B7051596A5067FA
:101BB000505A385455765A3759757A322F36476409
:101BC00077574E3836505733566E566D74495565B3
:101BD0006A687452636A6F6E56616D4977324B78EA
:101BE00067734C684C5A6261507342784E52676416
:101BF000684D4F39425A55636955642F5A473171C0
:101C0000736761446D704C4A76317975316A644806
:101C100065654E715379564F6F51384F397153483E
:101C200062326A305779314B4973356E614F737048
:101C30007A2B527950634267733967384E5A76422D
:101C4000465171466E5539723569794753506D77F3
:101C500031476A78586131506835344B6675457341
:101C60006B63753567634467646A6A6653436345AB
:101C7000657547735553754D5070794C3571384CB7
:101C800058764434657A36666C42585762476C6FB2
:101C90004E78714E6E73312F6E34594D66536965AF
:101CA00053487468362F62374A737A6D394B554FF3
:101CB0004146397A354B35586457653872346B591B
:101CC0006A63626A4B386F2B3633633862657570AE
:101CD0004477514342747875734166664E4E472B84
:101CE00032444E466554394465754C7849784B4AC0
:101CF0006E30776D464E55326E4A47557A65577548
:101D00005548646E6147747037335136476C4B7079
:101D1000443452434A6B796D562F576D304C5642BE
:101D2000685A3356794C6A63365865764B457578F0
:101D30004A595341357559355A79545979334B7A43
:101D4000676F72507652566372304F69494E7475A0
:101D5000774C774C71517435647A6938795764508F
:101D6000374B6B6F42594A68657237664E38552B50
:101D70006E4A4E515553734D667A7A62794C764568
:101D800047787243474E507741594F646C556C34D5
:101D90007539377671596D5953536149456C597787
:101DA0005476686E7664386F77543466314C554794
:101DB00068423353377168554C5146574C4D6D341A
:101DC0005779364345466469344B386557504474F7
:101DD000665436666C7055756A4A6B516A38546938
:101DE000396953537A6A676343596366314C57477D
:101DF000784C30436870784F49452F37496B776D81
:101E00006C35585254766E6E55696A4D546156570A
:101E1000675A2B54464E5A526176784F76736E53FA
:101E2000334B533462714C62746F5243706867472E
:101E3000424E32795833433433573658414E2B543F
:101E400067683676484E4755584B32715248342FA2
:101E500052763069453152396C785A63584841346A
:101E6000474135535848506C7164633377722B4443
:101E70006E784C736D6C68446C6F475754506D6747
:101E800056366A556262554742463379654F427706
:101E900050707A6D594F38447A726A3037486650BC
:101EA0007167765A4E78694D77574E743766556D1F
:101EB0006C41485737436C496F394C704C35544B23
:101EC000597537336F412F627441534351337A62EE
:101ED00032444D67664C396D5748493578324377FF
:101EE000587977576A4932517A2B54792F69415181
:101EF00044354443357178574C4E303447787148F7
:101F0000474E4D315162654E4859306169686F4E98
:101F100033486C7174424C6E484E4B4E4C68534B78
:101F2000774436664556564F755A576B53374D5062
:101F30003344462F494156764C77465772496B5980
:101F40006930596A54486F39784745704D5A74550D
:101F5000556970515636734A5879795754506D67A0
:101F60003132673048513361616D6F3177654D743F
:101F70005453584F594F38727A6A69637965657658
:101F80006A426C51723151716B70624C766F424192
:101F90004A78434977324B7867304B6843354A4437
:101FA0002B694B526B306F6C795766764C456C34AD
:101FB0004F5A375075514755366666766942735A9F
:101FC000392F6F315A724745776D4673747475783F
:101FD00042494A42664436666B35555769356B51FE
:101FE00069455369555851366E52494A324F7832D5
:101FF00075344763547165506D7848553676576D22
:102000005533586D63325875393663505733486BC2
:10201000636A6E41345042347646367643396B7784
:102020006D45796D307A5847592B32715658613762
:10203000675A7A4F5A32397236536955796D5875E5
:10204000397966507577466372746333787A3944A8
:1020500066574B7842494A42664C376673775665F5
:102060004C38733577474377324F7832757748630A
:10207000376E646E000011241FBECFEFCDBFDFE3CB
:10208000DEBF18E3A0E0B8E3E3E8FBE202C005909E
:102090000D92A830B107D9F728E3A8E0B8E301C052
:1020A0001D92AD31B207E1F70E946B120C946F15CF
:1020B0000C940000E2E2FBEA90E0282F880F330B3B
:1020C00081918217130621F09F5F9134C9F79FEF2A
:1020D000892F089540910438509105386091063851
:1020E000709107388091043890910538A091063896
:1020F000B0910738B695A795979587958093043842
:1021000090930538A0930638B093073840FF18C065
:102110008091043890910538A0910638B091073825
:102120002CE5822723ED92272CEBA22724EBB22764
:102130008093043890930538A0930638B0930738FD
:102140000895FC019191911101C0089580910408B6
:1021500085FFFCCF90930208F5CFEF92FF920F938B
:102160001F93CF93DF931F92CDB7DEB740911938FD
:1021700050911A3860911B3870911C38FA01E85858
:10218000FF4F8491FA013196E858FF4FE490FA012D
:102190003296E858FF4F1491FA013396E858FF4FF2
:1021A000F4904C5F5F4F6F4F7F4F409319385093BF
:1021B0001A3860931B3870931C380E945A10082FED
:1021C0008E2D0E945A10E82E812F0E945A10182F2F
:1021D0008F2D0E945A10402F50E070E060E096E092
:1021E000440F551F661F771F9A95D1F74E2926E099
:1021F000440F551F661F771F2A95D1F7412B36E0F4
:10220000440F551F661F771F3A95D1F78A01082B97
:10221000DB01C801AD016627772740931838492FA5
:102220005A2F6B2F77274093173889838091043872
:1022300090910538A0910638B09107382091183850
:102240008227809318380E946A10809104389091F8
:102250000538A0910638B0910738209117388227A9
:10226000809317380E946A10809104389091053845
:10227000A0910638B09107381981182719830E9458
:102280006A10812F82958F70809316381F7010937B
:1022900015380F90DF91CF911F910F91FF90EF9024
:1022A00008958091183880931438E0911538809102
:1022B000163894E0E99FF0011124EE50F545208195
:1022C00031814281538104C05695479537952795B2
:1022D0008A95D2F72093260A3093270ADA01C9019A
:1022E000B695A795979587958093380A9093390A64
:1022F00080911738811105C010923A0A10923B0A5A
:102300000895A0911738B0E011960E944D15672FDF
:10231000782F892F992760933A0A70933B0A089582
:1023200090910838992351F0809113388093C40814
:1023300081E0911180E080930838089580911238EF
:102340008068F4CF1F920F920FB60F9211242F9333
:102350003F934F935F936F937F938F939F93AF932D
:10236000BF93EF93FF9380910238909103380197C8
:1023700031F08091023890910338029749F48091AE
:1023800014388823C9F08091143881508093143810
:1023900081E08093960AFF91EF91BF91AF919F9159
:1023A0008F917F916F915F914F913F912F910F90FE
:1023B0000FBE0F901F9018950E94511180911438F4
:1023C000882339F082E090E08093023890930338BC
:1023D000DFCF83E090E0F8CF1F920F920FB60F92FD
:1023E00011242F933F934F935F936F937F938F931A
:1023F0009F93AF93BF93EF93FF9380910804209135
:102400000138282790910938809100388927822344
:102410008093003890959223909309383091013839
:102420004091013889232323822B8427809301380C
:102430008091023890910338049749F5E0910A3869
:10244000EF70F0E0EE51F545808180931338E09114
:102450000A38E295EF70F0E0EE51F5458081809307
:1024600012380E94901181E08093860AFF91EF91CB
:10247000BF91AF919F918F917F916F915F914F919C
:102480003F912F910F900FBE0F901F901895809144
:10249000023890910338079721F380E88093C408AD
:1024A000E2CF1F920F920FB60F9211248F93EF93EA
:1024B000FF93E0E0F4E082E086838583E3ECF8E0DC
:1024C000808180688083FF91EF918F910F900FBE84
:1024D0000F901F90189588ED84BF81E08093610074
:1024E000F89444E04093C1088093C20892E090932E
:1024F000210490932504909301048093E305209197
:10250000400425602093400430E23093C0082091BD
:10251000C00821602093C00878944093210447E4C8
:1025200050E1409308085093090820EC20930608D6
:1025300028E020931404209315042093160420937C
:102540001704F8941092810A40E157E240938C0AF4
:1025500050938D0A8093850A8093800A78948093A3
:102560000006109201063093020620E4209308062C
:102570003093090690930C0680930A06F894909382
:10258000000A93E29093010A24E234E72093260A9A
:102590003093270A22E13AE32093280A3093290A4C
:1025A00020E23EE420932A0A30932B0A9091000AFD
:1025B00091609093000A9091010A90619093010AB2
:1025C0007894F8941092910A2FEF3FEF20939C0A91
:1025D00030939D0A8093950A83E08093900A7894C3
:1025E000D0E0C0E0712C05E010E033E0232E312C68
:1025F000CC24C394D12CEE24E39451E3852E50E2F5
:10260000952E57E2A52E51E1B52E8091040887FF43
:1026100059C080910008882309F454C0C230D10504
:1026200009F475C048F4209709F445C0219709F4CE
:1026300068C0D0E0C0E046C0C430D10509F428C16C
:10264000C530D105B1F790ED980F9A3008F402C16A
:10265000982F9F7D91549A3108F4FCC089E69BEA3B
:102660000E94A110D0E0C0E0F090113890E2F91281
:102670001EC080E79BEA0E94A1104091103850E0F4
:1026800070E060E080910C3890910D38A0910E3888
:10269000B0910F388F739927AA27BB27481759077E
:1026A0006A077B0721F485E79BEA0E94A110F39457
:1026B000F092113807C021E090E08F3209F020E05D
:1026C000C22FD92FF09001388091080484FD0FC1EA
:1026D0008091100690911106A0911206B0911306F8
:1026E00080930A38809102389091033882309105A6
:1026F00009F4BAC108F064C1892B09F471C17F2CB7
:1027000084CFC2E0D0E08F3209F093CFDBCF845684
:10271000863108F0D6C0E82FF0E0EF56FC4E0C945E
:1027200047151714D51361146114611474146114DE
:10273000611461146114FE136114E51361146114D2
:10274000AA13C513A7136114611461141014C6E011
:10275000D0E0B8CF83E69BEA0E94A11080910238B6
:1027600090910338049729F410920238109203389C
:1027700060CF8091023890910338059709F059CFC6
:10278000C0920238D092033854CF83E69BEA0E946D
:10279000A11027E7209313382093123887E090E0A8
:1027A000809302389093033844CF83E69BEA0E94DB
:1027B000A1108091023890910338049709F439CF21
:1027C000209202383092033834CF83E69BEA0E948D
:1027D000A1108091023890910338019729F4009359
:1027E00002381093033825CF809102389091033836
:1027F000029709F01ECF0E94AD10F1CF83E69BEA4D
:102800000E94A1108091023890910338059709F039
:1028100010CFA6E0B0E0A0930238B093033809CF00
:1028200083E69BEA0E94A110C3E0D0E04BCF109258
:1028300011381092103884E690E0A0E0B0E0809368
:102840000C3890930D38A0930E38B0930F38C5E034
:10285000D0E038CF90911138903229F40E945A106C
:102860008093103801CF40910C3850910D38609111
:102870000E3870910F38480F511D611D711D409326
:102880000C3850930D3860930E3870930F38ECCE9F
:1028900020EDF22EF80EA9E0AF1538F49FE9980F5D
:1028A000963078F499EAF92EF80E8091113881115A
:1028B0000DC0F29480EFF822F0920B38E0921138BC
:1028C00001CF89E69BEA0E94A110B3CE83E69BEA82
:1028D0000E94A11080910B38F80EF0920A381092E5
:1028E0000B3810921138A5CEC4E0D0E0EBCE7F2893
:1028F0007F2475FE1AC080910238909103380497A6
:1029000041F480910A38882321F080910A3881505F
:10291000E7CE8091023890910338059709F0E2CE16
:102920002092023830920338DDCE76FE1CC08091B2
:10293000023890910338049741F480910A388F3F10
:1029400021F080910A388F5FCBCE80910238909130
:102950000338059709F0C6CE86E090E080930238F0
:1029600090930338BFCE77FEBDCE80910238909110
:102970000338049729F41092023810920338B2CE2B
:102980008091023890910338019729F4009302381E
:1029900010930338A7CE80910238909103380297A4
:1029A00019F40E94AD10F2CF809102389091033853
:1029B000059709F097CEC0920238D092033892CE94
:1029C0008330910509F457C0069709F098CE0E940C
:1029D00051110E94AD1000930238109303388FCE2E
:1029E0008092043890920538A0920638B092073849
:1029F00080910A38A0E28A9FC0011124092E000CA0
:102A0000AA0BBB0B8093193890931A38A0931B38EC
:102A1000B0931C38412C512C320180910A3828E1A6
:102A2000829FC0011124092E000CAA0BBB0B481673
:102A300059066A067B0680F00E94AD100E94511173
:102A400082E080932104E0922104A2E0B0E0A09310
:102A50000238B093033853CE0E946A10BFEF4B1A6E
:102A60005B0A6B0A7B0AD9CF0E94AD10C092023874
:102A7000D092033844CEB2E0B0932204E092220414
:102A800084E090E0809302389093033838CEEE0FC4
:102A9000FF1F0590F491E02D0994B7FF0C94551594
:102AA0000E945515821B930B08950E946015A59FE7
:102AB000900DB49F900DA49F800D911D1124089539
:102AC000A29FB001B39FC001A39F700D811D11246F
:102AD000911DB29F700D811D1124911D0895F894D0
:022AE000FFCF26
:102AE200086B44412311304B000302301C60141662
:102AF2001D6301002F4F01005F3C01009D2A010070
:102B0200DB190100090A01001AFB000003ED0000B5
:102B1200B5DF000027D300004DC700001DBC000038
:102B22004142434445464748494A4B4C4D4E4F501B
:102B32005152535455565758595A616263646566E7
:102B42006768696A6B6C6D6E6F707172737475769B
:102B52007778797A303132333435363738392B2F2A
:102B6200002341434B0A00234E41434B0A00465582
:102B7200434B005061796C6F616420627974650A1D
:012B82000052
:082B830001FF040031202711BD
:00000001FF
